S01700004763634170706C69636174696F6E312E737265635B
S11300000C942A000C943F000C9434000C9434009B
S11300100C9434000C9434000C9434000C9434008C
S11300200C9434000C9434000C9434000C9434007C
S11300300C9434000C9434000C9434000C9434006C
S11300400C9434000C9434000C9434000C9434005C
S11300500C94340011241FBECFE5D4E0DEBFCDBF25
S11300600E9436000C9451000C94000088E084BB7C
S113007085B7836085BF80E48BBF7894FFCF1F92E0
S11300800F920FB60F9211248F939F9395B388E02C
S1130090892785BB9F918F910F900FBE0F901F9062
S10900A01895F894FFCF4F
S9030000FC
